{
  "_format": "hh3-artifact-1",
  "contractName": "FoodTrace",
  "sourceName": "contracts/FoodTrace.sol",
  "abi": [
    {
      "inputs": [],
      "name": "ECDSAInvalidSignature",
      "type": "error"
    },
    {
      "inputs": [
        {
          "internalType": "uint256",
          "name": "length",
          "type": "uint256"
        }
      ],
      "name": "ECDSAInvalidSignatureLength",
      "type": "error"
    },
    {
      "inputs": [
        {
          "internalType": "bytes32",
          "name": "s",
          "type": "bytes32"
        }
      ],
      "name": "ECDSAInvalidSignatureS",
      "type": "error"
    },
    {
      "anonymous": false,
      "inputs": [
        {
          "indexed": true,
          "internalType": "uint256",
          "name": "id",
          "type": "uint256"
        },
        {
          "indexed": false,
          "internalType": "string",
          "name": "name",
          "type": "string"
        },
        {
          "indexed": true,
          "internalType": "address",
          "name": "owner",
          "type": "address"
        },
        {
          "indexed": false,
          "internalType": "bytes32",
          "name": "dataHash",
          "type": "bytes32"
        },
        {
          "indexed": false,
          "internalType": "uint256",
          "name": "timestamp",
          "type": "uint256"
        }
      ],
      "name": "ProductRegistered",
      "type": "event"
    },
    {
      "anonymous": false,
      "inputs": [
        {
          "indexed": true,
          "internalType": "uint256",
          "name": "id",
          "type": "uint256"
        },
        {
          "indexed": false,
          "internalType": "string",
          "name": "newStatus",
          "type": "string"
        },
        {
          "indexed": false,
          "internalType": "string",
          "name": "newImageUrl",
          "type": "string"
        },
        {
          "indexed": false,
          "internalType": "uint256",
          "name": "timestamp",
          "type": "uint256"
        }
      ],
      "name": "StatusUpdated",
      "type": "event"
    },
    {
      "inputs": [],
      "name": "getAllProducts",
      "outputs": [
        {
          "components": [
            {
              "internalType": "uint256",
              "name": "id",
              "type": "uint256"
            },
            {
              "internalType": "string",
              "name": "name",
              "type": "string"
            },
            {
              "internalType": "string",
              "name": "origin",
              "type": "string"
            },
            {
              "internalType": "string",
              "name": "location",
              "type": "string"
            },
            {
              "internalType": "string",
              "name": "productionDate",
              "type": "string"
            },
            {
              "internalType": "string",
              "name": "description",
              "type": "string"
            },
            {
              "internalType": "string",
              "name": "imageUrl",
              "type": "string"
            },
            {
              "internalType": "string",
              "name": "status",
              "type": "string"
            },
            {
              "internalType": "address",
              "name": "owner",
              "type": "address"
            },
            {
              "internalType": "uint256",
              "name": "timestamp",
              "type": "uint256"
            },
            {
              "internalType": "bytes32",
              "name": "dataHash",
              "type": "bytes32"
            },
            {
              "internalType": "bytes",
              "name": "ownerSignature",
              "type": "bytes"
            }
          ],
          "internalType": "struct FoodTrace.Product[]",
          "name": "",
          "type": "tuple[]"
        }
      ],
      "stateMutability": "view",
      "type": "function"
    },
    {
      "inputs": [
        {
          "internalType": "uint256",
          "name": "_id",
          "type": "uint256"
        }
      ],
      "name": "getProduct",
      "outputs": [
        {
          "components": [
            {
              "internalType": "uint256",
              "name": "id",
              "type": "uint256"
            },
            {
              "internalType": "string",
              "name": "name",
              "type": "string"
            },
            {
              "internalType": "string",
              "name": "origin",
              "type": "string"
            },
            {
              "internalType": "string",
              "name": "location",
              "type": "string"
            },
            {
              "internalType": "string",
              "name": "productionDate",
              "type": "string"
            },
            {
              "internalType": "string",
              "name": "description",
              "type": "string"
            },
            {
              "internalType": "string",
              "name": "imageUrl",
              "type": "string"
            },
            {
              "internalType": "string",
              "name": "status",
              "type": "string"
            },
            {
              "internalType": "address",
              "name": "owner",
              "type": "address"
            },
            {
              "internalType": "uint256",
              "name": "timestamp",
              "type": "uint256"
            },
            {
              "internalType": "bytes32",
              "name": "dataHash",
              "type": "bytes32"
            },
            {
              "internalType": "bytes",
              "name": "ownerSignature",
              "type": "bytes"
            }
          ],
          "internalType": "struct FoodTrace.Product",
          "name": "",
          "type": "tuple"
        }
      ],
      "stateMutability": "view",
      "type": "function"
    },
    {
      "inputs": [
        {
          "internalType": "uint256",
          "name": "_id",
          "type": "uint256"
        }
      ],
      "name": "getProductHistory",
      "outputs": [
        {
          "components": [
            {
              "internalType": "string",
              "name": "status",
              "type": "string"
            },
            {
              "internalType": "string",
              "name": "imageUrl",
              "type": "string"
            },
            {
              "internalType": "uint256",
              "name": "timestamp",
              "type": "uint256"
            }
          ],
          "internalType": "struct FoodTrace.History[]",
          "name": "",
          "type": "tuple[]"
        }
      ],
      "stateMutability": "view",
      "type": "function"
    },
    {
      "inputs": [],
      "name": "productCount",
      "outputs": [
        {
          "internalType": "uint256",
          "name": "",
          "type": "uint256"
        }
      ],
      "stateMutability": "view",
      "type": "function"
    },
    {
      "inputs": [
        {
          "internalType": "uint256",
          "name": "",
          "type": "uint256"
        }
      ],
      "name": "products",
      "outputs": [
        {
          "internalType": "uint256",
          "name": "id",
          "type": "uint256"
        },
        {
          "internalType": "string",
          "name": "name",
          "type": "string"
        },
        {
          "internalType": "string",
          "name": "origin",
          "type": "string"
        },
        {
          "internalType": "string",
          "name": "location",
          "type": "string"
        },
        {
          "internalType": "string",
          "name": "productionDate",
          "type": "string"
        },
        {
          "internalType": "string",
          "name": "description",
          "type": "string"
        },
        {
          "internalType": "string",
          "name": "imageUrl",
          "type": "string"
        },
        {
          "internalType": "string",
          "name": "status",
          "type": "string"
        },
        {
          "internalType": "address",
          "name": "owner",
          "type": "address"
        },
        {
          "internalType": "uint256",
          "name": "timestamp",
          "type": "uint256"
        },
        {
          "internalType": "bytes32",
          "name": "dataHash",
          "type": "bytes32"
        },
        {
          "internalType": "bytes",
          "name": "ownerSignature",
          "type": "bytes"
        }
      ],
      "stateMutability": "view",
      "type": "function"
    },
    {
      "inputs": [
        {
          "internalType": "string",
          "name": "_name",
          "type": "string"
        },
        {
          "internalType": "string",
          "name": "_origin",
          "type": "string"
        },
        {
          "internalType": "string",
          "name": "_location",
          "type": "string"
        },
        {
          "internalType": "string",
          "name": "_productionDate",
          "type": "string"
        },
        {
          "internalType": "string",
          "name": "_description",
          "type": "string"
        },
        {
          "internalType": "string",
          "name": "_imageUrl",
          "type": "string"
        },
        {
          "internalType": "bytes",
          "name": "_ownerSignature",
          "type": "bytes"
        },
        {
          "internalType": "string",
          "name": "_password",
          "type": "string"
        }
      ],
      "name": "registerProduct",
      "outputs": [],
      "stateMutability": "nonpayable",
      "type": "function"
    },
    {
      "inputs": [
        {
          "internalType": "uint256",
          "name": "_id",
          "type": "uint256"
        },
        {
          "internalType": "string",
          "name": "_newStatus",
          "type": "string"
        },
        {
          "internalType": "string",
          "name": "_newImageUrl",
          "type": "string"
        }
      ],
      "name": "updateStatus",
      "outputs": [],
      "stateMutability": "nonpayable",
      "type": "function"
    },
    {
      "inputs": [
        {
          "internalType": "uint256",
          "name": "_id",
          "type": "uint256"
        },
        {
          "internalType": "string",
          "name": "_name",
          "type": "string"
        },
        {
          "internalType": "string",
          "name": "_origin",
          "type": "string"
        },
        {
          "internalType": "string",
          "name": "_location",
          "type": "string"
        },
        {
          "internalType": "string",
          "name": "_productionDate",
          "type": "string"
        },
        {
          "internalType": "string",
          "name": "_description",
          "type": "string"
        }
      ],
      "name": "verifyProductData",
      "outputs": [
        {
          "internalType": "bool",
          "name": "",
          "type": "bool"
        }
      ],
      "stateMutability": "view",
      "type": "function"
    },
    {
      "inputs": [
        {
          "internalType": "uint256",
          "name": "_id",
          "type": "uint256"
        }
      ],
      "name": "verifySignature",
      "outputs": [
        {
          "internalType": "bool",
          "name": "",
          "type": "bool"
        }
      ],
      "stateMutability": "view",
      "type": "function"
    }
  ],
  "bytecode": "0x6080604052348015600e575f5ffd5b50613a308061001c5f395ff3fe608060405234801561000f575f5ffd5b5060043610610091575f3560e01c8063b9db15b411610064578063b9db15b41461013a578063de76673a1461016a578063e0f6ef8714610186578063e72767f7146101a4578063f95ff4d8146101d457610091565b806302ee3a521461009557806357a096a1146100b35780637acc0b20146100e3578063b49dbfc21461011e575b5f5ffd5b61009d610204565b6040516100aa91906127b8565b60405180910390f35b6100cd60048036038101906100c89190612813565b6107c1565b6040516100da919061294d565b60405180910390f35b6100fd60048036038101906100f89190612813565b6109a7565b6040516101159c9b9a99989796959493929190612a2a565b60405180910390f35b61013860048036038101906101339190612c46565b610e51565b005b610154600480360381019061014f9190612813565b6110d0565b6040516101619190612e00565b60405180910390f35b610184600480360381019061017f9190612ebe565b61163d565b005b61018e611abd565b60405161019b919061304f565b60405180910390f35b6101be60048036038101906101b99190612813565b611ac3565b6040516101cb9190613082565b60405180910390f35b6101ee60048036038101906101e9919061309b565b612086565b6040516101fb9190613082565b60405180910390f35b60605f60025467ffffffffffffffff81111561022357610222612b22565b5b60405190808252806020026020018201604052801561025c57816020015b610249612427565b8152602001906001900390816102415790505b5090505f600190505b60025481116107b9575f5f8281526020019081526020015f20604051806101800160405290815f82015481526020016001820180546102a3906131dd565b80601f01602080910402602001604051908101604052809291908181526020018280546102cf906131dd565b801561031a5780601f106102f15761010080835404028352916020019161031a565b820191905f5260205f20905b8154815290600101906020018083116102fd57829003601f168201915b50505050508152602001600282018054610333906131dd565b80601f016020809104026020016040519081016040528092919081815260200182805461035f906131dd565b80156103aa5780601f10610381576101008083540402835291602001916103aa565b820191905f5260205f20905b81548152906001019060200180831161038d57829003601f168201915b505050505081526020016003820180546103c3906131dd565b80601f01602080910402602001604051908101604052809291908181526020018280546103ef906131dd565b801561043a5780601f106104115761010080835404028352916020019161043a565b820191905f5260205f20905b81548152906001019060200180831161041d57829003601f168201915b50505050508152602001600482018054610453906131dd565b80601f016020809104026020016040519081016040528092919081815260200182805461047f906131dd565b80156104ca5780601f106104a1576101008083540402835291602001916104ca565b820191905f5260205f20905b8154815290600101906020018083116104ad57829003601f168201915b505050505081526020016005820180546104e3906131dd565b80601f016020809104026020016040519081016040528092919081815260200182805461050f906131dd565b801561055a5780601f106105315761010080835404028352916020019161055a565b820191905f5260205f20905b81548152906001019060200180831161053d57829003601f168201915b50505050508152602001600682018054610573906131dd565b80601f016020809104026020016040519081016040528092919081815260200182805461059f906131dd565b80156105ea5780601f106105c1576101008083540402835291602001916105ea565b820191905f5260205f20905b8154815290600101906020018083116105cd57829003601f168201915b50505050508152602001600782018054610603906131dd565b80601f016020809104026020016040519081016040528092919081815260200182805461062f906131dd565b801561067a5780601f106106515761010080835404028352916020019161067a565b820191905f5260205f20905b81548152906001019060200180831161065d57829003601f168201915b50505050508152602001600882015f9054906101000a900473ffffffffffffffffffffffffffffffffffffffff1673ffffffffffffffffffffffffffffffffffffffff1673ffffffffffffffffffffffffffffffffffffffff16815260200160098201548152602001600a8201548152602001600b820180546106fc906131dd565b80601f0160208091040260200160405190810160405280929190818152602001828054610728906131dd565b80156107735780601f1061074a57610100808354040283529160200191610773565b820191905f5260205f20905b81548152906001019060200180831161075657829003601f168201915b5050505050815250508260018361078a919061323a565b8151811061079b5761079a61326d565b5b602002602001018190525080806107b19061329a565b915050610265565b508091505090565b60605f821180156107d457506002548211155b610813576040517f08c379a000000000000000000000000000000000000000000000000000000000815260040161080a9061332b565b60405180910390fd5b60015f8381526020019081526020015f20805480602002602001604051908101604052809291908181526020015f905b8282101561099c578382905f5260205f2090600302016040518060600160405290815f82018054610873906131dd565b80601f016020809104026020016040519081016040528092919081815260200182805461089f906131dd565b80156108ea5780601f106108c1576101008083540402835291602001916108ea565b820191905f5260205f20905b8154815290600101906020018083116108cd57829003601f168201915b50505050508152602001600182018054610903906131dd565b80601f016020809104026020016040519081016040528092919081815260200182805461092f906131dd565b801561097a5780601f106109515761010080835404028352916020019161097a565b820191905f5260205f20905b81548152906001019060200180831161095d57829003601f168201915b5050505050815260200160028201548152505081526020019060010190610843565b505050509050919050565b5f602052805f5260405f205f91509050805f0154908060010180546109cb906131dd565b80601f01602080910402602001604051908101604052809291908181526020018280546109f7906131dd565b8015610a425780601f10610a1957610100808354040283529160200191610a42565b820191905f5260205f20905b815481529060010190602001808311610a2557829003601f168201915b505050505090806002018054610a57906131dd565b80601f0160208091040260200160405190810160405280929190818152602001828054610a83906131dd565b8015610ace5780601f10610aa557610100808354040283529160200191610ace565b820191905f5260205f20905b815481529060010190602001808311610ab157829003601f168201915b505050505090806003018054610ae3906131dd565b80601f0160208091040260200160405190810160405280929190818152602001828054610b0f906131dd565b8015610b5a5780601f10610b3157610100808354040283529160200191610b5a565b820191905f5260205f20905b815481529060010190602001808311610b3d57829003601f168201915b505050505090806004018054610b6f906131dd565b80601f0160208091040260200160405190810160405280929190818152602001828054610b9b906131dd565b8015610be65780601f10610bbd57610100808354040283529160200191610be6565b820191905f5260205f20905b815481529060010190602001808311610bc957829003601f168201915b505050505090806005018054610bfb906131dd565b80601f0160208091040260200160405190810160405280929190818152602001828054610c27906131dd565b8015610c725780601f10610c4957610100808354040283529160200191610c72565b820191905f5260205f20905b815481529060010190602001808311610c5557829003601f168201915b505050505090806006018054610c87906131dd565b80601f0160208091040260200160405190810160405280929190818152602001828054610cb3906131dd565b8015610cfe5780601f10610cd557610100808354040283529160200191610cfe565b820191905f5260205f20905b815481529060010190602001808311610ce157829003601f168201915b505050505090806007018054610d13906131dd565b80601f0160208091040260200160405190810160405280929190818152602001828054610d3f906131dd565b8015610d8a5780601f10610d6157610100808354040283529160200191610d8a565b820191905f5260205f20905b815481529060010190602001808311610d6d57829003601f168201915b505050505090806008015f9054906101000a900473ffffffffffffffffffffffffffffffffffffffff169080600901549080600a01549080600b018054610dd0906131dd565b80601f0160208091040260200160405190810160405280929190818152602001828054610dfc906131dd565b8015610e475780601f10610e1e57610100808354040283529160200191610e47565b820191905f5260205f20905b815481529060010190602001808311610e2a57829003601f168201915b505050505090508c565b5f83118015610e6257506002548311155b610ea1576040517f08c379a0000000000000000000000000000000000000000000000000000000008152600401610e989061332b565b60405180910390fd5b5f5f5f8581526020019081526020015f209050806008015f9054906101000a900473ffffffffffffffffffffffffffffffffffffffff1673ffffffffffffffffffffffffffffffffffffffff163373ffffffffffffffffffffffffffffffffffffffff1614610f45576040517f08c379a0000000000000000000000000000000000000000000000000000000008152600401610f3c90613393565b60405180910390fd5b5f82511115610f615781816006019081610f5f9190613551565b505b82816007019081610f729190613551565b5042816009018190555060015f8581526020019081526020015f206040518060600160405280858152602001836006018054610fad906131dd565b80601f0160208091040260200160405190810160405280929190818152602001828054610fd9906131dd565b80156110245780601f10610ffb57610100808354040283529160200191611024565b820191905f5260205f20905b81548152906001019060200180831161100757829003601f168201915b5050505050815260200142815250908060018154018082558091505060019003905f5260205f2090600302015f909190919091505f820151815f01908161106b9190613551565b5060208201518160010190816110819190613551565b50604082015181600201555050837ff09e75b124e0bcc67c43558bce3f0b9e4a56686362aae44f0ba1a4ebf79b37d08484426040516110c293929190613620565b60405180910390a250505050565b6110d8612427565b5f821180156110e957506002548211155b611128576040517f08c379a000000000000000000000000000000000000000000000000000000000815260040161111f9061332b565b60405180910390fd5b5f5f8381526020019081526020015f20604051806101800160405290815f820154815260200160018201805461115d906131dd565b80601f0160208091040260200160405190810160405280929190818152602001828054611189906131dd565b80156111d45780601f106111ab576101008083540402835291602001916111d4565b820191905f5260205f20905b8154815290600101906020018083116111b757829003601f168201915b505050505081526020016002820180546111ed906131dd565b80601f0160208091040260200160405190810160405280929190818152602001828054611219906131dd565b80156112645780601f1061123b57610100808354040283529160200191611264565b820191905f5260205f20905b81548152906001019060200180831161124757829003601f168201915b5050505050815260200160038201805461127d906131dd565b80601f01602080910402602001604051908101604052809291908181526020018280546112a9906131dd565b80156112f45780601f106112cb576101008083540402835291602001916112f4565b820191905f5260205f20905b8154815290600101906020018083116112d757829003601f168201915b5050505050815260200160048201805461130d906131dd565b80601f0160208091040260200160405190810160405280929190818152602001828054611339906131dd565b80156113845780601f1061135b57610100808354040283529160200191611384565b820191905f5260205f20905b81548152906001019060200180831161136757829003601f168201915b5050505050815260200160058201805461139d906131dd565b80601f01602080910402602001604051908101604052809291908181526020018280546113c9906131dd565b80156114145780601f106113eb57610100808354040283529160200191611414565b820191905f5260205f20905b8154815290600101906020018083116113f757829003601f168201915b5050505050815260200160068201805461142d906131dd565b80601f0160208091040260200160405190810160405280929190818152602001828054611459906131dd565b80156114a45780601f1061147b576101008083540402835291602001916114a4565b820191905f5260205f20905b81548152906001019060200180831161148757829003601f168201915b505050505081526020016007820180546114bd906131dd565b80601f01602080910402602001604051908101604052809291908181526020018280546114e9906131dd565b80156115345780601f1061150b57610100808354040283529160200191611534565b820191905f5260205f20905b81548152906001019060200180831161151757829003601f168201915b50505050508152602001600882015f9054906101000a900473ffffffffffffffffffffffffffffffffffffffff1673ffffffffffffffffffffffffffffffffffffffff1673ffffffffffffffffffffffffffffffffffffffff16815260200160098201548152602001600a8201548152602001600b820180546115b6906131dd565b80601f01602080910402602001604051908101604052809291908181526020018280546115e2906131dd565b801561162d5780601f106116045761010080835404028352916020019161162d565b820191905f5260205f20905b81548152906001019060200180831161161057829003601f168201915b5050505050815250509050919050565b806040518060400160405280600881526020017f6464303832303138000000000000000000000000000000000000000000000000815250604051602001611684919061369d565b60405160208183030381529060405280519060200120816040516020016116ab919061369d565b6040516020818303038152906040528051906020012014611701576040517f08c379a00000000000000000000000000000000000000000000000000000000081526004016116f8906136fd565b60405180910390fd5b60025f8154809291906117139061329a565b91905055505f898989898960405160200161173295949392919061371b565b6040516020818303038152906040528051906020012090505f6117548261212c565b90505f611761828761215f565b90503373ffffffffffffffffffffffffffffffffffffffff168173ffffffffffffffffffffffffffffffffffffffff16146117d1576040517f08c379a00000000000000000000000000000000000000000000000000000000081526004016117c8906137d5565b60405180910390fd5b60405180610180016040528060025481526020018d81526020018c81526020018b81526020018a81526020018981526020018881526020016040518060400160405280600781526020017f437265617465640000000000000000000000000000000000000000000000000081525081526020013373ffffffffffffffffffffffffffffffffffffffff168152602001428152602001848152602001878152505f5f60025481526020019081526020015f205f820151815f0155602082015181600101908161189f9190613551565b5060408201518160020190816118b59190613551565b5060608201518160030190816118cb9190613551565b5060808201518160040190816118e19190613551565b5060a08201518160050190816118f79190613551565b5060c082015181600601908161190d9190613551565b5060e08201518160070190816119239190613551565b50610100820151816008015f6101000a81548173ffffffffffffffffffffffffffffffffffffffff021916908373ffffffffffffffffffffffffffffffffffffffff160217905550610120820151816009015561014082015181600a015561016082015181600b019081611997919061384b565b5090505060015f60025481526020019081526020015f2060405180606001604052806040518060400160405280600781526020017f4372656174656400000000000000000000000000000000000000000000000000815250815260200189815260200142815250908060018154018082558091505060019003905f5260205f2090600302015f909190919091505f820151815f019081611a379190613551565b506020820151816001019081611a4d9190613551565b506040820151816002015550503373ffffffffffffffffffffffffffffffffffffffff166002547f417214d2fa82399b3ebccea329db2283500cfdbec3daaaae6df8a79f458329ce8e8642604051611aa79392919061391a565b60405180910390a3505050505050505050505050565b60025481565b5f5f82118015611ad557506002548211155b611b14576040517f08c379a0000000000000000000000000000000000000000000000000000000008152600401611b0b9061332b565b60405180910390fd5b5f5f5f8481526020019081526020015f20604051806101800160405290815f8201548152602001600182018054611b4a906131dd565b80601f0160208091040260200160405190810160405280929190818152602001828054611b76906131dd565b8015611bc15780601f10611b9857610100808354040283529160200191611bc1565b820191905f5260205f20905b815481529060010190602001808311611ba457829003601f168201915b50505050508152602001600282018054611bda906131dd565b80601f0160208091040260200160405190810160405280929190818152602001828054611c06906131dd565b8015611c515780601f10611c2857610100808354040283529160200191611c51565b820191905f5260205f20905b815481529060010190602001808311611c3457829003601f168201915b50505050508152602001600382018054611c6a906131dd565b80601f0160208091040260200160405190810160405280929190818152602001828054611c96906131dd565b8015611ce15780601f10611cb857610100808354040283529160200191611ce1565b820191905f5260205f20905b815481529060010190602001808311611cc457829003601f168201915b50505050508152602001600482018054611cfa906131dd565b80601f0160208091040260200160405190810160405280929190818152602001828054611d26906131dd565b8015611d715780601f10611d4857610100808354040283529160200191611d71565b820191905f5260205f20905b815481529060010190602001808311611d5457829003601f168201915b50505050508152602001600582018054611d8a906131dd565b80601f0160208091040260200160405190810160405280929190818152602001828054611db6906131dd565b8015611e015780601f10611dd857610100808354040283529160200191611e01565b820191905f5260205f20905b815481529060010190602001808311611de457829003601f168201915b50505050508152602001600682018054611e1a906131dd565b80601f0160208091040260200160405190810160405280929190818152602001828054611e46906131dd565b8015611e915780601f10611e6857610100808354040283529160200191611e91565b820191905f5260205f20905b815481529060010190602001808311611e7457829003601f168201915b50505050508152602001600782018054611eaa906131dd565b80601f0160208091040260200160405190810160405280929190818152602001828054611ed6906131dd565b8015611f215780601f10611ef857610100808354040283529160200191611f21565b820191905f5260205f20905b815481529060010190602001808311611f0457829003601f168201915b50505050508152602001600882015f9054906101000a900473ffffffffffffffffffffffffffffffffffffffff1673ffffffffffffffffffffffffffffffffffffffff1673ffffffffffffffffffffffffffffffffffffffff16815260200160098201548152602001600a8201548152602001600b82018054611fa3906131dd565b80601f0160208091040260200160405190810160405280929190818152602001828054611fcf906131dd565b801561201a5780601f10611ff15761010080835404028352916020019161201a565b820191905f5260205f20905b815481529060010190602001808311611ffd57829003601f168201915b50505050508152505090505f61203482610140015161212c565b90505f6120468284610160015161215f565b905082610100015173ffffffffffffffffffffffffffffffffffffffff168173ffffffffffffffffffffffffffffffffffffffff16149350505050919050565b5f5f8711801561209857506002548711155b6120d7576040517f08c379a00000000000000000000000000000000000000000000000000000000081526004016120ce9061332b565b60405180910390fd5b5f86868686866040516020016120f195949392919061371b565b6040516020818303038152906040528051906020012090505f5f8981526020019081526020015f20600a015481149150509695505050505050565b5f7f19457468657265756d205369676e6564204d6573736167653a0a3332000000005f5281601c52603c5f209050919050565b5f5f5f5f61216d8686612189565b92509250925061217d82826121de565b82935050505092915050565b5f5f5f60418451036121c9575f5f5f602087015192506040870151915060608701515f1a90506121bb88828585612340565b9550955095505050506121d7565b5f600285515f1b9250925092505b9250925092565b5f60038111156121f1576121f0613956565b5b82600381111561220457612203613956565b5b031561233c576001600381111561221e5761221d613956565b5b82600381111561223157612230613956565b5b03612268576040517ff645eedf00000000000000000000000000000000000000000000000000000000815260040160405180910390fd5b6002600381111561227c5761227b613956565b5b82600381111561228f5761228e613956565b5b036122d357805f1c6040517ffce698f70000000000000000000000000000000000000000000000000000000081526004016122ca919061304f565b60405180910390fd5b6003808111156122e6576122e5613956565b5b8260038111156122f9576122f8613956565b5b0361233b57806040517fd78bce0c0000000000000000000000000000000000000000000000000000000081526004016123329190613983565b60405180910390fd5b5b5050565b5f5f5f7f7fffffffffffffffffffffffffffffff5d576e7357a4501ddfe92f46681b20a0845f1c111561237c575f60038592509250925061241d565b5f6001888888886040515f815260200160405260405161239f94939291906139b7565b6020604051602081039080840390855afa1580156123bf573d5f5f3e3d5ffd5b5050506020604051035190505f73ffffffffffffffffffffffffffffffffffffffff168173ffffffffffffffffffffffffffffffffffffffff1603612410575f60015f5f1b9350935093505061241d565b805f5f5f1b935093509350505b9450945094915050565b6040518061018001604052805f8152602001606081526020016060815260200160608152602001606081526020016060815260200160608152602001606081526020015f73ffffffffffffffffffffffffffffffffffffffff1681526020015f81526020015f8152602001606081525090565b5f81519050919050565b5f82825260208201905092915050565b5f819050602082019050919050565b5f819050919050565b6124d5816124c3565b82525050565b5f81519050919050565b5f82825260208201905092915050565b8281835e5f83830152505050565b5f601f19601f8301169050919050565b5f61251d826124db565b61252781856124e5565b93506125378185602086016124f5565b61254081612503565b840191505092915050565b5f73ffffffffffffffffffffffffffffffffffffffff82169050919050565b5f6125748261254b565b9050919050565b6125848161256a565b82525050565b5f819050919050565b61259c8161258a565b82525050565b5f81519050919050565b5f82825260208201905092915050565b5f6125c6826125a2565b6125d081856125ac565b93506125e08185602086016124f5565b6125e981612503565b840191505092915050565b5f61018083015f83015161260a5f8601826124cc565b50602083015184820360208601526126228282612513565b9150506040830151848203604086015261263c8282612513565b915050606083015184820360608601526126568282612513565b915050608083015184820360808601526126708282612513565b91505060a083015184820360a086015261268a8282612513565b91505060c083015184820360c08601526126a48282612513565b91505060e083015184820360e08601526126be8282612513565b9150506101008301516126d561010086018261257b565b506101208301516126ea6101208601826124cc565b506101408301516126ff610140860182612593565b5061016083015184820361016086015261271982826125bc565b9150508091505092915050565b5f61273183836125f4565b905092915050565b5f602082019050919050565b5f61274f8261249a565b61275981856124a4565b93508360208202850161276b856124b4565b805f5b858110156127a657848403895281516127878582612726565b945061279283612739565b925060208a0199505060018101905061276e565b50829750879550505050505092915050565b5f6020820190508181035f8301526127d08184612745565b905092915050565b5f604051905090565b5f5ffd5b5f5ffd5b6127f2816124c3565b81146127fc575f5ffd5b50565b5f8135905061280d816127e9565b92915050565b5f60208284031215612828576128276127e1565b5b5f612835848285016127ff565b91505092915050565b5f81519050919050565b5f82825260208201905092915050565b5f819050602082019050919050565b5f606083015f8301518482035f8601526128818282612513565b9150506020830151848203602086015261289b8282612513565b91505060408301516128b060408601826124cc565b508091505092915050565b5f6128c68383612867565b905092915050565b5f602082019050919050565b5f6128e48261283e565b6128ee8185612848565b93508360208202850161290085612858565b805f5b8581101561293b578484038952815161291c85826128bb565b9450612927836128ce565b925060208a01995050600181019050612903565b50829750879550505050505092915050565b5f6020820190508181035f83015261296581846128da565b905092915050565b612976816124c3565b82525050565b5f82825260208201905092915050565b5f612996826124db565b6129a0818561297c565b93506129b08185602086016124f5565b6129b981612503565b840191505092915050565b6129cd8161256a565b82525050565b6129dc8161258a565b82525050565b5f82825260208201905092915050565b5f6129fc826125a2565b612a0681856129e2565b9350612a168185602086016124f5565b612a1f81612503565b840191505092915050565b5f61018082019050612a3e5f83018f61296d565b8181036020830152612a50818e61298c565b90508181036040830152612a64818d61298c565b90508181036060830152612a78818c61298c565b90508181036080830152612a8c818b61298c565b905081810360a0830152612aa0818a61298c565b905081810360c0830152612ab4818961298c565b905081810360e0830152612ac8818861298c565b9050612ad86101008301876129c4565b612ae661012083018661296d565b612af46101408301856129d3565b818103610160830152612b0781846129f2565b90509d9c50505050505050505050505050565b5f5ffd5b5f5ffd5b7f4e487b71000000000000000000000000000000000000000000000000000000005f52604160045260245ffd5b612b5882612503565b810181811067ffffffffffffffff82111715612b7757612b76612b22565b5b80604052505050565b5f612b896127d8565b9050612b958282612b4f565b919050565b5f67ffffffffffffffff821115612bb457612bb3612b22565b5b612bbd82612503565b9050602081019050919050565b828183375f83830152505050565b5f612bea612be584612b9a565b612b80565b905082815260208101848484011115612c0657612c05612b1e565b5b612c11848285612bca565b509392505050565b5f82601f830112612c2d57612c2c612b1a565b5b8135612c3d848260208601612bd8565b91505092915050565b5f5f5f60608486031215612c5d57612c5c6127e1565b5b5f612c6a868287016127ff565b935050602084013567ffffffffffffffff811115612c8b57612c8a6127e5565b5b612c9786828701612c19565b925050604084013567ffffffffffffffff811115612cb857612cb76127e5565b5b612cc486828701612c19565b9150509250925092565b5f61018083015f830151612ce45f8601826124cc565b5060208301518482036020860152612cfc8282612513565b91505060408301518482036040860152612d168282612513565b91505060608301518482036060860152612d308282612513565b91505060808301518482036080860152612d4a8282612513565b91505060a083015184820360a0860152612d648282612513565b91505060c083015184820360c0860152612d7e8282612513565b91505060e083015184820360e0860152612d988282612513565b915050610100830151612daf61010086018261257b565b50610120830151612dc46101208601826124cc565b50610140830151612dd9610140860182612593565b50610160830151848203610160860152612df382826125bc565b9150508091505092915050565b5f6020820190508181035f830152612e188184612cce565b905092915050565b5f67ffffffffffffffff821115612e3a57612e39612b22565b5b612e4382612503565b9050602081019050919050565b5f612e62612e5d84612e20565b612b80565b905082815260208101848484011115612e7e57612e7d612b1e565b5b612e89848285612bca565b509392505050565b5f82601f830112612ea557612ea4612b1a565b5b8135612eb5848260208601612e50565b91505092915050565b5f5f5f5f5f5f5f5f610100898b031215612edb57612eda6127e1565b5b5f89013567ffffffffffffffff811115612ef857612ef76127e5565b5b612f048b828c01612c19565b985050602089013567ffffffffffffffff811115612f2557612f246127e5565b5b612f318b828c01612c19565b975050604089013567ffffffffffffffff811115612f5257612f516127e5565b5b612f5e8b828c01612c19565b965050606089013567ffffffffffffffff811115612f7f57612f7e6127e5565b5b612f8b8b828c01612c19565b955050608089013567ffffffffffffffff811115612fac57612fab6127e5565b5b612fb88b828c01612c19565b94505060a089013567ffffffffffffffff811115612fd957612fd86127e5565b5b612fe58b828c01612c19565b93505060c089013567ffffffffffffffff811115613006576130056127e5565b5b6130128b828c01612e91565b92505060e089013567ffffffffffffffff811115613033576130326127e5565b5b61303f8b828c01612c19565b9150509295985092959890939650565b5f6020820190506130625f83018461296d565b92915050565b5f8115159050919050565b61307c81613068565b82525050565b5f6020820190506130955f830184613073565b92915050565b5f5f5f5f5f5f60c087890312156130b5576130b46127e1565b5b5f6130c289828a016127ff565b965050602087013567ffffffffffffffff8111156130e3576130e26127e5565b5b6130ef89828a01612c19565b955050604087013567ffffffffffffffff8111156131105761310f6127e5565b5b61311c89828a01612c19565b945050606087013567ffffffffffffffff81111561313d5761313c6127e5565b5b61314989828a01612c19565b935050608087013567ffffffffffffffff81111561316a576131696127e5565b5b61317689828a01612c19565b92505060a087013567ffffffffffffffff811115613197576131966127e5565b5b6131a389828a01612c19565b9150509295509295509295565b7f4e487b71000000000000000000000000000000000000000000000000000000005f52602260045260245ffd5b5f60028204905060018216806131f457607f821691505b602082108103613207576132066131b0565b5b50919050565b7f4e487b71000000000000000000000000000000000000000000000000000000005f52601160045260245ffd5b5f613244826124c3565b915061324f836124c3565b92508282039050818111156132675761326661320d565b5b92915050565b7f4e487b71000000000000000000000000000000000000000000000000000000005f52603260045260245ffd5b5f6132a4826124c3565b91507fffffffffffffffffffffffffffffffffffffffffffffffffffffffffffffffff82036132d6576132d561320d565b5b600182019050919050565b7f496e76616c69642070726f6475637420494400000000000000000000000000005f82015250565b5f61331560128361297c565b9150613320826132e1565b602082019050919050565b5f6020820190508181035f83015261334281613309565b9050919050565b7f4e6f7420617574686f72697a65640000000000000000000000000000000000005f82015250565b5f61337d600e8361297c565b915061338882613349565b602082019050919050565b5f6020820190508181035f8301526133aa81613371565b9050919050565b5f819050815f5260205f209050919050565b5f6020601f8301049050919050565b5f82821b905092915050565b5f6008830261340d7fffffffffffffffffffffffffffffffffffffffffffffffffffffffffffffffff826133d2565b61341786836133d2565b95508019841693508086168417925050509392505050565b5f819050919050565b5f61345261344d613448846124c3565b61342f565b6124c3565b9050919050565b5f819050919050565b61346b83613438565b61347f61347782613459565b8484546133de565b825550505050565b5f5f905090565b613496613487565b6134a1818484613462565b505050565b5b818110156134c4576134b95f8261348e565b6001810190506134a7565b5050565b601f821115613509576134da816133b1565b6134e3846133c3565b810160208510156134f2578190505b6135066134fe856133c3565b8301826134a6565b50505b505050565b5f82821c905092915050565b5f6135295f198460080261350e565b1980831691505092915050565b5f613541838361351a565b9150826002028217905092915050565b61355a826124db565b67ffffffffffffffff81111561357357613572612b22565b5b61357d82546131dd565b6135888282856134c8565b5f60209050601f8311600181146135b9575f84156135a7578287015190505b6135b18582613536565b865550613618565b601f1984166135c7866133b1565b5f5b828110156135ee578489015182556001820191506020850194506020810190506135c9565b8683101561360b5784890151613607601f89168261351a565b8355505b6001600288020188555050505b505050505050565b5f6060820190508181035f830152613638818661298c565b9050818103602083015261364c818561298c565b905061365b604083018461296d565b949350505050565b5f81905092915050565b5f613677826124db565b6136818185613663565b93506136918185602086016124f5565b80840191505092915050565b5f6136a8828461366d565b915081905092915050565b7f4163636573732064656e6965643a20696e76616c69642070617373776f7264005f82015250565b5f6136e7601f8361297c565b91506136f2826136b3565b602082019050919050565b5f6020820190508181035f830152613714816136db565b9050919050565b5f613726828861366d565b9150613732828761366d565b915061373e828661366d565b915061374a828561366d565b9150613756828461366d565b91508190509695505050505050565b7f496e76616c6964207369676e61747572653a206e6f74207369676e65642062795f8201527f206f776e65720000000000000000000000000000000000000000000000000000602082015250565b5f6137bf60268361297c565b91506137ca82613765565b604082019050919050565b5f6020820190508181035f8301526137ec816137b3565b9050919050565b5f819050815f5260205f209050919050565b601f82111561384657613817816137f3565b613820846133c3565b8101602085101561382f578190505b61384361383b856133c3565b8301826134a6565b50505b505050565b613854826125a2565b67ffffffffffffffff81111561386d5761386c612b22565b5b61387782546131dd565b613882828285613805565b5f60209050601f8311600181146138b3575f84156138a1578287015190505b6138ab8582613536565b865550613912565b601f1984166138c1866137f3565b5f5b828110156138e8578489015182556001820191506020850194506020810190506138c3565b868310156139055784890151613901601f89168261351a565b8355505b6001600288020188555050505b505050505050565b5f6060820190508181035f830152613932818661298c565b905061394160208301856129d3565b61394e604083018461296d565b949350505050565b7f4e487b71000000000000000000000000000000000000000000000000000000005f52602160045260245ffd5b5f6020820190506139965f8301846129d3565b92915050565b5f60ff82169050919050565b6139b18161399c565b82525050565b5f6080820190506139ca5f8301876129d3565b6139d760208301866139a8565b6139e460408301856129d3565b6139f160608301846129d3565b9594505050505056fea264697066735822122013cca5b1d66207430b57fb2b98933c1bdedeee66dc17f01195803155cc68608664736f6c634300081c0033",
  "linkReferences": {},
  "deployedLinkReferences": {},
  "immutableReferences": {},
  "inputSourceName": "project/contracts/FoodTrace.sol",
  "buildInfoId": "solc-0_8_28-26972eb38920190ebe85596b53c2356dcdd0c35f"
}