{
  "_format": "hh3-artifact-1",
  "contractName": "FoodTrace",
  "sourceName": "contracts/FoodTrace.sol",
  "abi": [
    {
      "inputs": [],
      "name": "ECDSAInvalidSignature",
      "type": "error"
    },
    {
      "inputs": [
        {
          "internalType": "uint256",
          "name": "length",
          "type": "uint256"
        }
      ],
      "name": "ECDSAInvalidSignatureLength",
      "type": "error"
    },
    {
      "inputs": [
        {
          "internalType": "bytes32",
          "name": "s",
          "type": "bytes32"
        }
      ],
      "name": "ECDSAInvalidSignatureS",
      "type": "error"
    },
    {
      "anonymous": false,
      "inputs": [
        {
          "indexed": true,
          "internalType": "address",
          "name": "owner",
          "type": "address"
        },
        {
          "indexed": false,
          "internalType": "bytes32",
          "name": "commitHash",
          "type": "bytes32"
        },
        {
          "indexed": false,
          "internalType": "uint256",
          "name": "timestamp",
          "type": "uint256"
        }
      ],
      "name": "ProductCommitted",
      "type": "event"
    },
    {
      "anonymous": false,
      "inputs": [
        {
          "indexed": true,
          "internalType": "uint256",
          "name": "id",
          "type": "uint256"
        },
        {
          "indexed": false,
          "internalType": "string",
          "name": "name",
          "type": "string"
        },
        {
          "indexed": true,
          "internalType": "address",
          "name": "owner",
          "type": "address"
        },
        {
          "indexed": false,
          "internalType": "bytes32",
          "name": "dataHash",
          "type": "bytes32"
        },
        {
          "indexed": false,
          "internalType": "uint256",
          "name": "timestamp",
          "type": "uint256"
        }
      ],
      "name": "ProductRegistered",
      "type": "event"
    },
    {
      "anonymous": false,
      "inputs": [
        {
          "indexed": true,
          "internalType": "uint256",
          "name": "id",
          "type": "uint256"
        },
        {
          "indexed": false,
          "internalType": "string",
          "name": "newStatus",
          "type": "string"
        },
        {
          "indexed": false,
          "internalType": "string",
          "name": "newImageUrl",
          "type": "string"
        },
        {
          "indexed": false,
          "internalType": "uint256",
          "name": "timestamp",
          "type": "uint256"
        }
      ],
      "name": "StatusUpdated",
      "type": "event"
    },
    {
      "inputs": [
        {
          "internalType": "bytes32",
          "name": "_commitHash",
          "type": "bytes32"
        }
      ],
      "name": "commitProductHash",
      "outputs": [],
      "stateMutability": "nonpayable",
      "type": "function"
    },
    {
      "inputs": [
        {
          "internalType": "address",
          "name": "",
          "type": "address"
        }
      ],
      "name": "commits",
      "outputs": [
        {
          "internalType": "bytes32",
          "name": "",
          "type": "bytes32"
        }
      ],
      "stateMutability": "view",
      "type": "function"
    },
    {
      "inputs": [],
      "name": "getAllProducts",
      "outputs": [
        {
          "components": [
            {
              "internalType": "uint256",
              "name": "id",
              "type": "uint256"
            },
            {
              "internalType": "string",
              "name": "name",
              "type": "string"
            },
            {
              "internalType": "string",
              "name": "origin",
              "type": "string"
            },
            {
              "internalType": "string",
              "name": "location",
              "type": "string"
            },
            {
              "internalType": "string",
              "name": "productionDate",
              "type": "string"
            },
            {
              "internalType": "string",
              "name": "description",
              "type": "string"
            },
            {
              "internalType": "string",
              "name": "imageUrl",
              "type": "string"
            },
            {
              "internalType": "string",
              "name": "status",
              "type": "string"
            },
            {
              "internalType": "address",
              "name": "owner",
              "type": "address"
            },
            {
              "internalType": "uint256",
              "name": "timestamp",
              "type": "uint256"
            },
            {
              "internalType": "bytes32",
              "name": "dataHash",
              "type": "bytes32"
            },
            {
              "internalType": "bytes",
              "name": "ownerSignature",
              "type": "bytes"
            }
          ],
          "internalType": "struct FoodTrace.Product[]",
          "name": "",
          "type": "tuple[]"
        }
      ],
      "stateMutability": "view",
      "type": "function"
    },
    {
      "inputs": [
        {
          "internalType": "uint256",
          "name": "_id",
          "type": "uint256"
        }
      ],
      "name": "getProduct",
      "outputs": [
        {
          "components": [
            {
              "internalType": "uint256",
              "name": "id",
              "type": "uint256"
            },
            {
              "internalType": "string",
              "name": "name",
              "type": "string"
            },
            {
              "internalType": "string",
              "name": "origin",
              "type": "string"
            },
            {
              "internalType": "string",
              "name": "location",
              "type": "string"
            },
            {
              "internalType": "string",
              "name": "productionDate",
              "type": "string"
            },
            {
              "internalType": "string",
              "name": "description",
              "type": "string"
            },
            {
              "internalType": "string",
              "name": "imageUrl",
              "type": "string"
            },
            {
              "internalType": "string",
              "name": "status",
              "type": "string"
            },
            {
              "internalType": "address",
              "name": "owner",
              "type": "address"
            },
            {
              "internalType": "uint256",
              "name": "timestamp",
              "type": "uint256"
            },
            {
              "internalType": "bytes32",
              "name": "dataHash",
              "type": "bytes32"
            },
            {
              "internalType": "bytes",
              "name": "ownerSignature",
              "type": "bytes"
            }
          ],
          "internalType": "struct FoodTrace.Product",
          "name": "",
          "type": "tuple"
        }
      ],
      "stateMutability": "view",
      "type": "function"
    },
    {
      "inputs": [
        {
          "internalType": "uint256",
          "name": "_id",
          "type": "uint256"
        }
      ],
      "name": "getProductHistory",
      "outputs": [
        {
          "components": [
            {
              "internalType": "string",
              "name": "status",
              "type": "string"
            },
            {
              "internalType": "string",
              "name": "imageUrl",
              "type": "string"
            },
            {
              "internalType": "uint256",
              "name": "timestamp",
              "type": "uint256"
            }
          ],
          "internalType": "struct FoodTrace.History[]",
          "name": "",
          "type": "tuple[]"
        }
      ],
      "stateMutability": "view",
      "type": "function"
    },
    {
      "inputs": [],
      "name": "productCount",
      "outputs": [
        {
          "internalType": "uint256",
          "name": "",
          "type": "uint256"
        }
      ],
      "stateMutability": "view",
      "type": "function"
    },
    {
      "inputs": [
        {
          "internalType": "uint256",
          "name": "",
          "type": "uint256"
        }
      ],
      "name": "products",
      "outputs": [
        {
          "internalType": "uint256",
          "name": "id",
          "type": "uint256"
        },
        {
          "internalType": "string",
          "name": "name",
          "type": "string"
        },
        {
          "internalType": "string",
          "name": "origin",
          "type": "string"
        },
        {
          "internalType": "string",
          "name": "location",
          "type": "string"
        },
        {
          "internalType": "string",
          "name": "productionDate",
          "type": "string"
        },
        {
          "internalType": "string",
          "name": "description",
          "type": "string"
        },
        {
          "internalType": "string",
          "name": "imageUrl",
          "type": "string"
        },
        {
          "internalType": "string",
          "name": "status",
          "type": "string"
        },
        {
          "internalType": "address",
          "name": "owner",
          "type": "address"
        },
        {
          "internalType": "uint256",
          "name": "timestamp",
          "type": "uint256"
        },
        {
          "internalType": "bytes32",
          "name": "dataHash",
          "type": "bytes32"
        },
        {
          "internalType": "bytes",
          "name": "ownerSignature",
          "type": "bytes"
        }
      ],
      "stateMutability": "view",
      "type": "function"
    },
    {
      "inputs": [
        {
          "internalType": "string",
          "name": "_name",
          "type": "string"
        },
        {
          "internalType": "string",
          "name": "_origin",
          "type": "string"
        },
        {
          "internalType": "string",
          "name": "_location",
          "type": "string"
        },
        {
          "internalType": "string",
          "name": "_productionDate",
          "type": "string"
        },
        {
          "internalType": "string",
          "name": "_description",
          "type": "string"
        },
        {
          "internalType": "string",
          "name": "_imageUrl",
          "type": "string"
        },
        {
          "internalType": "bytes",
          "name": "_ownerSignature",
          "type": "bytes"
        },
        {
          "internalType": "string",
          "name": "_password",
          "type": "string"
        },
        {
          "internalType": "string",
          "name": "_salt",
          "type": "string"
        }
      ],
      "name": "registerProduct",
      "outputs": [],
      "stateMutability": "nonpayable",
      "type": "function"
    },
    {
      "inputs": [
        {
          "internalType": "uint256",
          "name": "_id",
          "type": "uint256"
        },
        {
          "internalType": "string",
          "name": "_newStatus",
          "type": "string"
        },
        {
          "internalType": "string",
          "name": "_newImageUrl",
          "type": "string"
        }
      ],
      "name": "updateStatus",
      "outputs": [],
      "stateMutability": "nonpayable",
      "type": "function"
    },
    {
      "inputs": [
        {
          "internalType": "uint256",
          "name": "_id",
          "type": "uint256"
        },
        {
          "internalType": "string",
          "name": "_name",
          "type": "string"
        },
        {
          "internalType": "string",
          "name": "_origin",
          "type": "string"
        },
        {
          "internalType": "string",
          "name": "_location",
          "type": "string"
        },
        {
          "internalType": "string",
          "name": "_productionDate",
          "type": "string"
        },
        {
          "internalType": "string",
          "name": "_description",
          "type": "string"
        },
        {
          "internalType": "string",
          "name": "_salt",
          "type": "string"
        }
      ],
      "name": "verifyProductData",
      "outputs": [
        {
          "internalType": "bool",
          "name": "",
          "type": "bool"
        }
      ],
      "stateMutability": "view",
      "type": "function"
    },
    {
      "inputs": [
        {
          "internalType": "uint256",
          "name": "_id",
          "type": "uint256"
        }
      ],
      "name": "verifySignature",
      "outputs": [
        {
          "internalType": "bool",
          "name": "",
          "type": "bool"
        }
      ],
      "stateMutability": "view",
      "type": "function"
    }
  ],
  "bytecode": "0x6080604052348015600e575f5ffd5b50613e8f8061001c5f395ff3fe608060405234801561000f575f5ffd5b50600436106100a7575f3560e01c80637b43a8e61161006f5780637b43a8e6146101805780639b1deb93146101b0578063b49dbfc2146101cc578063b9db15b4146101e8578063e0f6ef8714610218578063e72767f714610236576100a7565b806302ee3a52146100ab578063124089f9146100c95780631bbd07a0146100e557806357a096a1146101155780637acc0b2014610145575b5f5ffd5b6100b3610266565b6040516100c09190612a0a565b60405180910390f35b6100e360048036038101906100de9190612c05565b610823565b005b6100ff60048036038101906100fa9190612def565b610de6565b60405161010c9190612f4e565b60405180910390f35b61012f600480360381019061012a9190612f67565b610e8f565b60405161013c91906130a1565b60405180910390f35b61015f600480360381019061015a9190612f67565b611075565b6040516101779c9b9a9998979695949392919061317e565b60405180910390f35b61019a60048036038101906101959190613298565b61151f565b6040516101a791906132c3565b60405180910390f35b6101ca60048036038101906101c59190613306565b611534565b005b6101e660048036038101906101e19190613331565b6115c9565b005b61020260048036038101906101fd9190612f67565b611848565b60405161020f91906134eb565b60405180910390f35b610220611db5565b60405161022d919061350b565b60405180910390f35b610250600480360381019061024b9190612f67565b611dbb565b60405161025d9190612f4e565b60405180910390f35b60605f60035467ffffffffffffffff81111561028557610284612a43565b5b6040519080825280602002602001820160405280156102be57816020015b6102ab612679565b8152602001906001900390816102a35790505b5090505f600190505b600354811161081b575f5f8281526020019081526020015f20604051806101800160405290815f820154815260200160018201805461030590613551565b80601f016020809104026020016040519081016040528092919081815260200182805461033190613551565b801561037c5780601f106103535761010080835404028352916020019161037c565b820191905f5260205f20905b81548152906001019060200180831161035f57829003601f168201915b5050505050815260200160028201805461039590613551565b80601f01602080910402602001604051908101604052809291908181526020018280546103c190613551565b801561040c5780601f106103e35761010080835404028352916020019161040c565b820191905f5260205f20905b8154815290600101906020018083116103ef57829003601f168201915b5050505050815260200160038201805461042590613551565b80601f016020809104026020016040519081016040528092919081815260200182805461045190613551565b801561049c5780601f106104735761010080835404028352916020019161049c565b820191905f5260205f20905b81548152906001019060200180831161047f57829003601f168201915b505050505081526020016004820180546104b590613551565b80601f01602080910402602001604051908101604052809291908181526020018280546104e190613551565b801561052c5780601f106105035761010080835404028352916020019161052c565b820191905f5260205f20905b81548152906001019060200180831161050f57829003601f168201915b5050505050815260200160058201805461054590613551565b80601f016020809104026020016040519081016040528092919081815260200182805461057190613551565b80156105bc5780601f10610593576101008083540402835291602001916105bc565b820191905f5260205f20905b81548152906001019060200180831161059f57829003601f168201915b505050505081526020016006820180546105d590613551565b80601f016020809104026020016040519081016040528092919081815260200182805461060190613551565b801561064c5780601f106106235761010080835404028352916020019161064c565b820191905f5260205f20905b81548152906001019060200180831161062f57829003601f168201915b5050505050815260200160078201805461066590613551565b80601f016020809104026020016040519081016040528092919081815260200182805461069190613551565b80156106dc5780601f106106b3576101008083540402835291602001916106dc565b820191905f5260205f20905b8154815290600101906020018083116106bf57829003601f168201915b50505050508152602001600882015f9054906101000a900473ffffffffffffffffffffffffffffffffffffffff1673ffffffffffffffffffffffffffffffffffffffff1673ffffffffffffffffffffffffffffffffffffffff16815260200160098201548152602001600a8201548152602001600b8201805461075e90613551565b80601f016020809104026020016040519081016040528092919081815260200182805461078a90613551565b80156107d55780601f106107ac576101008083540402835291602001916107d5565b820191905f5260205f20905b8154815290600101906020018083116107b857829003601f168201915b505050505081525050826001836107ec91906135ae565b815181106107fd576107fc6135e1565b5b602002602001018190525080806108139061360e565b9150506102c7565b508091505090565b816040518060400160405280600881526020017f646430383230313800000000000000000000000000000000000000000000000081525060405160200161086a919061368f565b6040516020818303038152906040528051906020012081604051602001610891919061368f565b60405160208183030381529060405280519060200120146108e7576040517f08c379a00000000000000000000000000000000000000000000000000000000081526004016108de906136ef565b60405180910390fd5b5f8a8a8a8a8a876040516020016109039695949392919061370d565b6040516020818303038152906040528051906020012090505f5f1b60025f3373ffffffffffffffffffffffffffffffffffffffff1673ffffffffffffffffffffffffffffffffffffffff1681526020019081526020015f20540361099c576040517f08c379a0000000000000000000000000000000000000000000000000000000008152600401610993906137ae565b60405180910390fd5b8060025f3373ffffffffffffffffffffffffffffffffffffffff1673ffffffffffffffffffffffffffffffffffffffff1681526020019081526020015f205414610a1b576040517f08c379a0000000000000000000000000000000000000000000000000000000008152600401610a1290613816565b60405180910390fd5b5f610a258261237e565b90505f610a3282886123b1565b90503373ffffffffffffffffffffffffffffffffffffffff168173ffffffffffffffffffffffffffffffffffffffff1614610aa2576040517f08c379a0000000000000000000000000000000000000000000000000000000008152600401610a99906138a4565b60405180910390fd5b60025f3373ffffffffffffffffffffffffffffffffffffffff1673ffffffffffffffffffffffffffffffffffffffff1681526020019081526020015f205f905560035f815480929190610af49061360e565b919050555060405180610180016040528060035481526020018e81526020018d81526020018c81526020018b81526020018a81526020018981526020016040518060400160405280600781526020017f437265617465640000000000000000000000000000000000000000000000000081525081526020013373ffffffffffffffffffffffffffffffffffffffff168152602001428152602001848152602001888152505f5f60035481526020019081526020015f205f820151815f01556020820151816001019081610bc79190613a62565b506040820151816002019081610bdd9190613a62565b506060820151816003019081610bf39190613a62565b506080820151816004019081610c099190613a62565b5060a0820151816005019081610c1f9190613a62565b5060c0820151816006019081610c359190613a62565b5060e0820151816007019081610c4b9190613a62565b50610100820151816008015f6101000a81548173ffffffffffffffffffffffffffffffffffffffff021916908373ffffffffffffffffffffffffffffffffffffffff160217905550610120820151816009015561014082015181600a015561016082015181600b019081610cbf9190613b89565b5090505060015f60035481526020019081526020015f2060405180606001604052806040518060400160405280600781526020017f437265617465640000000000000000000000000000000000000000000000000081525081526020018a815260200142815250908060018154018082558091505060019003905f5260205f2090600302015f909190919091505f820151815f019081610d5f9190613a62565b506020820151816001019081610d759190613a62565b506040820151816002015550503373ffffffffffffffffffffffffffffffffffffffff166003547f417214d2fa82399b3ebccea329db2283500cfdbec3daaaae6df8a79f458329ce8f8642604051610dcf93929190613c58565b60405180910390a350505050505050505050505050565b5f5f88118015610df857506003548811155b610e37576040517f08c379a0000000000000000000000000000000000000000000000000000000008152600401610e2e90613cde565b60405180910390fd5b5f878787878787604051602001610e539695949392919061370d565b6040516020818303038152906040528051906020012090505f5f8a81526020019081526020015f20600a01548114915050979650505050505050565b60605f82118015610ea257506003548211155b610ee1576040517f08c379a0000000000000000000000000000000000000000000000000000000008152600401610ed890613cde565b60405180910390fd5b60015f8381526020019081526020015f20805480602002602001604051908101604052809291908181526020015f905b8282101561106a578382905f5260205f2090600302016040518060600160405290815f82018054610f4190613551565b80601f0160208091040260200160405190810160405280929190818152602001828054610f6d90613551565b8015610fb85780601f10610f8f57610100808354040283529160200191610fb8565b820191905f5260205f20905b815481529060010190602001808311610f9b57829003601f168201915b50505050508152602001600182018054610fd190613551565b80601f0160208091040260200160405190810160405280929190818152602001828054610ffd90613551565b80156110485780601f1061101f57610100808354040283529160200191611048565b820191905f5260205f20905b81548152906001019060200180831161102b57829003601f168201915b5050505050815260200160028201548152505081526020019060010190610f11565b505050509050919050565b5f602052805f5260405f205f91509050805f01549080600101805461109990613551565b80601f01602080910402602001604051908101604052809291908181526020018280546110c590613551565b80156111105780601f106110e757610100808354040283529160200191611110565b820191905f5260205f20905b8154815290600101906020018083116110f357829003601f168201915b50505050509080600201805461112590613551565b80601f016020809104026020016040519081016040528092919081815260200182805461115190613551565b801561119c5780601f106111735761010080835404028352916020019161119c565b820191905f5260205f20905b81548152906001019060200180831161117f57829003601f168201915b5050505050908060030180546111b190613551565b80601f01602080910402602001604051908101604052809291908181526020018280546111dd90613551565b80156112285780601f106111ff57610100808354040283529160200191611228565b820191905f5260205f20905b81548152906001019060200180831161120b57829003601f168201915b50505050509080600401805461123d90613551565b80601f016020809104026020016040519081016040528092919081815260200182805461126990613551565b80156112b45780601f1061128b576101008083540402835291602001916112b4565b820191905f5260205f20905b81548152906001019060200180831161129757829003601f168201915b5050505050908060050180546112c990613551565b80601f01602080910402602001604051908101604052809291908181526020018280546112f590613551565b80156113405780601f1061131757610100808354040283529160200191611340565b820191905f5260205f20905b81548152906001019060200180831161132357829003601f168201915b50505050509080600601805461135590613551565b80601f016020809104026020016040519081016040528092919081815260200182805461138190613551565b80156113cc5780601f106113a3576101008083540402835291602001916113cc565b820191905f5260205f20905b8154815290600101906020018083116113af57829003601f168201915b5050505050908060070180546113e190613551565b80601f016020809104026020016040519081016040528092919081815260200182805461140d90613551565b80156114585780601f1061142f57610100808354040283529160200191611458565b820191905f5260205f20905b81548152906001019060200180831161143b57829003601f168201915b505050505090806008015f9054906101000a900473ffffffffffffffffffffffffffffffffffffffff169080600901549080600a01549080600b01805461149e90613551565b80601f01602080910402602001604051908101604052809291908181526020018280546114ca90613551565b80156115155780601f106114ec57610100808354040283529160200191611515565b820191905f5260205f20905b8154815290600101906020018083116114f857829003601f168201915b505050505090508c565b6002602052805f5260405f205f915090505481565b8060025f3373ffffffffffffffffffffffffffffffffffffffff1673ffffffffffffffffffffffffffffffffffffffff1681526020019081526020015f20819055503373ffffffffffffffffffffffffffffffffffffffff167fc6e9c856f92aff04b1b7bac9497dea5c2a4367d212f4f2f6e5f86cc8fb423ecc82426040516115be929190613cfc565b60405180910390a250565b5f831180156115da57506003548311155b611619576040517f08c379a000000000000000000000000000000000000000000000000000000000815260040161161090613cde565b60405180910390fd5b5f5f5f8581526020019081526020015f209050806008015f9054906101000a900473ffffffffffffffffffffffffffffffffffffffff1673ffffffffffffffffffffffffffffffffffffffff163373ffffffffffffffffffffffffffffffffffffffff16146116bd576040517f08c379a00000000000000000000000000000000000000000000000000000000081526004016116b490613d6d565b60405180910390fd5b5f825111156116d957818160060190816116d79190613a62565b505b828160070190816116ea9190613a62565b5042816009018190555060015f8581526020019081526020015f20604051806060016040528085815260200183600601805461172590613551565b80601f016020809104026020016040519081016040528092919081815260200182805461175190613551565b801561179c5780601f106117735761010080835404028352916020019161179c565b820191905f5260205f20905b81548152906001019060200180831161177f57829003601f168201915b5050505050815260200142815250908060018154018082558091505060019003905f5260205f2090600302015f909190919091505f820151815f0190816117e39190613a62565b5060208201518160010190816117f99190613a62565b50604082015181600201555050837ff09e75b124e0bcc67c43558bce3f0b9e4a56686362aae44f0ba1a4ebf79b37d084844260405161183a93929190613d8b565b60405180910390a250505050565b611850612679565b5f8211801561186157506003548211155b6118a0576040517f08c379a000000000000000000000000000000000000000000000000000000000815260040161189790613cde565b60405180910390fd5b5f5f8381526020019081526020015f20604051806101800160405290815f82015481526020016001820180546118d590613551565b80601f016020809104026020016040519081016040528092919081815260200182805461190190613551565b801561194c5780601f106119235761010080835404028352916020019161194c565b820191905f5260205f20905b81548152906001019060200180831161192f57829003601f168201915b5050505050815260200160028201805461196590613551565b80601f016020809104026020016040519081016040528092919081815260200182805461199190613551565b80156119dc5780601f106119b3576101008083540402835291602001916119dc565b820191905f5260205f20905b8154815290600101906020018083116119bf57829003601f168201915b505050505081526020016003820180546119f590613551565b80601f0160208091040260200160405190810160405280929190818152602001828054611a2190613551565b8015611a6c5780601f10611a4357610100808354040283529160200191611a6c565b820191905f5260205f20905b815481529060010190602001808311611a4f57829003601f168201915b50505050508152602001600482018054611a8590613551565b80601f0160208091040260200160405190810160405280929190818152602001828054611ab190613551565b8015611afc5780601f10611ad357610100808354040283529160200191611afc565b820191905f5260205f20905b815481529060010190602001808311611adf57829003601f168201915b50505050508152602001600582018054611b1590613551565b80601f0160208091040260200160405190810160405280929190818152602001828054611b4190613551565b8015611b8c5780601f10611b6357610100808354040283529160200191611b8c565b820191905f5260205f20905b815481529060010190602001808311611b6f57829003601f168201915b50505050508152602001600682018054611ba590613551565b80601f0160208091040260200160405190810160405280929190818152602001828054611bd190613551565b8015611c1c5780601f10611bf357610100808354040283529160200191611c1c565b820191905f5260205f20905b815481529060010190602001808311611bff57829003601f168201915b50505050508152602001600782018054611c3590613551565b80601f0160208091040260200160405190810160405280929190818152602001828054611c6190613551565b8015611cac5780601f10611c8357610100808354040283529160200191611cac565b820191905f5260205f20905b815481529060010190602001808311611c8f57829003601f168201915b50505050508152602001600882015f9054906101000a900473ffffffffffffffffffffffffffffffffffffffff1673ffffffffffffffffffffffffffffffffffffffff1673ffffffffffffffffffffffffffffffffffffffff16815260200160098201548152602001600a8201548152602001600b82018054611d2e90613551565b80601f0160208091040260200160405190810160405280929190818152602001828054611d5a90613551565b8015611da55780601f10611d7c57610100808354040283529160200191611da5565b820191905f5260205f20905b815481529060010190602001808311611d8857829003601f168201915b5050505050815250509050919050565b60035481565b5f5f82118015611dcd57506003548211155b611e0c576040517f08c379a0000000000000000000000000000000000000000000000000000000008152600401611e0390613cde565b60405180910390fd5b5f5f5f8481526020019081526020015f20604051806101800160405290815f8201548152602001600182018054611e4290613551565b80601f0160208091040260200160405190810160405280929190818152602001828054611e6e90613551565b8015611eb95780601f10611e9057610100808354040283529160200191611eb9565b820191905f5260205f20905b815481529060010190602001808311611e9c57829003601f168201915b50505050508152602001600282018054611ed290613551565b80601f0160208091040260200160405190810160405280929190818152602001828054611efe90613551565b8015611f495780601f10611f2057610100808354040283529160200191611f49565b820191905f5260205f20905b815481529060010190602001808311611f2c57829003601f168201915b50505050508152602001600382018054611f6290613551565b80601f0160208091040260200160405190810160405280929190818152602001828054611f8e90613551565b8015611fd95780601f10611fb057610100808354040283529160200191611fd9565b820191905f5260205f20905b815481529060010190602001808311611fbc57829003601f168201915b50505050508152602001600482018054611ff290613551565b80601f016020809104026020016040519081016040528092919081815260200182805461201e90613551565b80156120695780601f1061204057610100808354040283529160200191612069565b820191905f5260205f20905b81548152906001019060200180831161204c57829003601f168201915b5050505050815260200160058201805461208290613551565b80601f01602080910402602001604051908101604052809291908181526020018280546120ae90613551565b80156120f95780601f106120d0576101008083540402835291602001916120f9565b820191905f5260205f20905b8154815290600101906020018083116120dc57829003601f168201915b5050505050815260200160068201805461211290613551565b80601f016020809104026020016040519081016040528092919081815260200182805461213e90613551565b80156121895780601f1061216057610100808354040283529160200191612189565b820191905f5260205f20905b81548152906001019060200180831161216c57829003601f168201915b505050505081526020016007820180546121a290613551565b80601f01602080910402602001604051908101604052809291908181526020018280546121ce90613551565b80156122195780601f106121f057610100808354040283529160200191612219565b820191905f5260205f20905b8154815290600101906020018083116121fc57829003601f168201915b50505050508152602001600882015f9054906101000a900473ffffffffffffffffffffffffffffffffffffffff1673ffffffffffffffffffffffffffffffffffffffff1673ffffffffffffffffffffffffffffffffffffffff16815260200160098201548152602001600a8201548152602001600b8201805461229b90613551565b80601f01602080910402602001604051908101604052809291908181526020018280546122c790613551565b80156123125780601f106122e957610100808354040283529160200191612312565b820191905f5260205f20905b8154815290600101906020018083116122f557829003601f168201915b50505050508152505090505f61232c82610140015161237e565b90505f61233e828461016001516123b1565b905082610100015173ffffffffffffffffffffffffffffffffffffffff168173ffffffffffffffffffffffffffffffffffffffff16149350505050919050565b5f7f19457468657265756d205369676e6564204d6573736167653a0a3332000000005f5281601c52603c5f209050919050565b5f5f5f5f6123bf86866123db565b9250925092506123cf8282612430565b82935050505092915050565b5f5f5f604184510361241b575f5f5f602087015192506040870151915060608701515f1a905061240d88828585612592565b955095509550505050612429565b5f600285515f1b9250925092505b9250925092565b5f600381111561244357612442613dce565b5b82600381111561245657612455613dce565b5b031561258e57600160038111156124705761246f613dce565b5b82600381111561248357612482613dce565b5b036124ba576040517ff645eedf00000000000000000000000000000000000000000000000000000000815260040160405180910390fd5b600260038111156124ce576124cd613dce565b5b8260038111156124e1576124e0613dce565b5b0361252557805f1c6040517ffce698f700000000000000000000000000000000000000000000000000000000815260040161251c919061350b565b60405180910390fd5b60038081111561253857612537613dce565b5b82600381111561254b5761254a613dce565b5b0361258d57806040517fd78bce0c00000000000000000000000000000000000000000000000000000000815260040161258491906132c3565b60405180910390fd5b5b5050565b5f5f5f7f7fffffffffffffffffffffffffffffff5d576e7357a4501ddfe92f46681b20a0845f1c11156125ce575f60038592509250925061266f565b5f6001888888886040515f81526020016040526040516125f19493929190613e16565b6020604051602081039080840390855afa158015612611573d5f5f3e3d5ffd5b5050506020604051035190505f73ffffffffffffffffffffffffffffffffffffffff168173ffffffffffffffffffffffffffffffffffffffff1603612662575f60015f5f1b9350935093505061266f565b805f5f5f1b935093509350505b9450945094915050565b6040518061018001604052805f8152602001606081526020016060815260200160608152602001606081526020016060815260200160608152602001606081526020015f73ffffffffffffffffffffffffffffffffffffffff1681526020015f81526020015f8152602001606081525090565b5f81519050919050565b5f82825260208201905092915050565b5f819050602082019050919050565b5f819050919050565b61272781612715565b82525050565b5f81519050919050565b5f82825260208201905092915050565b8281835e5f83830152505050565b5f601f19601f8301169050919050565b5f61276f8261272d565b6127798185612737565b9350612789818560208601612747565b61279281612755565b840191505092915050565b5f73ffffffffffffffffffffffffffffffffffffffff82169050919050565b5f6127c68261279d565b9050919050565b6127d6816127bc565b82525050565b5f819050919050565b6127ee816127dc565b82525050565b5f81519050919050565b5f82825260208201905092915050565b5f612818826127f4565b61282281856127fe565b9350612832818560208601612747565b61283b81612755565b840191505092915050565b5f61018083015f83015161285c5f86018261271e565b50602083015184820360208601526128748282612765565b9150506040830151848203604086015261288e8282612765565b915050606083015184820360608601526128a88282612765565b915050608083015184820360808601526128c28282612765565b91505060a083015184820360a08601526128dc8282612765565b91505060c083015184820360c08601526128f68282612765565b91505060e083015184820360e08601526129108282612765565b9150506101008301516129276101008601826127cd565b5061012083015161293c61012086018261271e565b506101408301516129516101408601826127e5565b5061016083015184820361016086015261296b828261280e565b9150508091505092915050565b5f6129838383612846565b905092915050565b5f602082019050919050565b5f6129a1826126ec565b6129ab81856126f6565b9350836020820285016129bd85612706565b805f5b858110156129f857848403895281516129d98582612978565b94506129e48361298b565b925060208a019950506001810190506129c0565b50829750879550505050505092915050565b5f6020820190508181035f830152612a228184612997565b905092915050565b5f604051905090565b5f5ffd5b5f5ffd5b5f5ffd5b5f5ffd5b7f4e487b71000000000000000000000000000000000000000000000000000000005f52604160045260245ffd5b612a7982612755565b810181811067ffffffffffffffff82111715612a9857612a97612a43565b5b80604052505050565b5f612aaa612a2a565b9050612ab68282612a70565b919050565b5f67ffffffffffffffff821115612ad557612ad4612a43565b5b612ade82612755565b9050602081019050919050565b828183375f83830152505050565b5f612b0b612b0684612abb565b612aa1565b905082815260208101848484011115612b2757612b26612a3f565b5b612b32848285612aeb565b509392505050565b5f82601f830112612b4e57612b4d612a3b565b5b8135612b5e848260208601612af9565b91505092915050565b5f67ffffffffffffffff821115612b8157612b80612a43565b5b612b8a82612755565b9050602081019050919050565b5f612ba9612ba484612b67565b612aa1565b905082815260208101848484011115612bc557612bc4612a3f565b5b612bd0848285612aeb565b509392505050565b5f82601f830112612bec57612beb612a3b565b5b8135612bfc848260208601612b97565b91505092915050565b5f5f5f5f5f5f5f5f5f6101208a8c031215612c2357612c22612a33565b5b5f8a013567ffffffffffffffff811115612c4057612c3f612a37565b5b612c4c8c828d01612b3a565b99505060208a013567ffffffffffffffff811115612c6d57612c6c612a37565b5b612c798c828d01612b3a565b98505060408a013567ffffffffffffffff811115612c9a57612c99612a37565b5b612ca68c828d01612b3a565b97505060608a013567ffffffffffffffff811115612cc757612cc6612a37565b5b612cd38c828d01612b3a565b96505060808a013567ffffffffffffffff811115612cf457612cf3612a37565b5b612d008c828d01612b3a565b95505060a08a013567ffffffffffffffff811115612d2157612d20612a37565b5b612d2d8c828d01612b3a565b94505060c08a013567ffffffffffffffff811115612d4e57612d4d612a37565b5b612d5a8c828d01612bd8565b93505060e08a013567ffffffffffffffff811115612d7b57612d7a612a37565b5b612d878c828d01612b3a565b9250506101008a013567ffffffffffffffff811115612da957612da8612a37565b5b612db58c828d01612b3a565b9150509295985092959850929598565b612dce81612715565b8114612dd8575f5ffd5b50565b5f81359050612de981612dc5565b92915050565b5f5f5f5f5f5f5f60e0888a031215612e0a57612e09612a33565b5b5f612e178a828b01612ddb565b975050602088013567ffffffffffffffff811115612e3857612e37612a37565b5b612e448a828b01612b3a565b965050604088013567ffffffffffffffff811115612e6557612e64612a37565b5b612e718a828b01612b3a565b955050606088013567ffffffffffffffff811115612e9257612e91612a37565b5b612e9e8a828b01612b3a565b945050608088013567ffffffffffffffff811115612ebf57612ebe612a37565b5b612ecb8a828b01612b3a565b93505060a088013567ffffffffffffffff811115612eec57612eeb612a37565b5b612ef88a828b01612b3a565b92505060c088013567ffffffffffffffff811115612f1957612f18612a37565b5b612f258a828b01612b3a565b91505092959891949750929550565b5f8115159050919050565b612f4881612f34565b82525050565b5f602082019050612f615f830184612f3f565b92915050565b5f60208284031215612f7c57612f7b612a33565b5b5f612f8984828501612ddb565b91505092915050565b5f81519050919050565b5f82825260208201905092915050565b5f819050602082019050919050565b5f606083015f8301518482035f860152612fd58282612765565b91505060208301518482036020860152612fef8282612765565b9150506040830151613004604086018261271e565b508091505092915050565b5f61301a8383612fbb565b905092915050565b5f602082019050919050565b5f61303882612f92565b6130428185612f9c565b93508360208202850161305485612fac565b805f5b8581101561308f5784840389528151613070858261300f565b945061307b83613022565b925060208a01995050600181019050613057565b50829750879550505050505092915050565b5f6020820190508181035f8301526130b9818461302e565b905092915050565b6130ca81612715565b82525050565b5f82825260208201905092915050565b5f6130ea8261272d565b6130f481856130d0565b9350613104818560208601612747565b61310d81612755565b840191505092915050565b613121816127bc565b82525050565b613130816127dc565b82525050565b5f82825260208201905092915050565b5f613150826127f4565b61315a8185613136565b935061316a818560208601612747565b61317381612755565b840191505092915050565b5f610180820190506131925f83018f6130c1565b81810360208301526131a4818e6130e0565b905081810360408301526131b8818d6130e0565b905081810360608301526131cc818c6130e0565b905081810360808301526131e0818b6130e0565b905081810360a08301526131f4818a6130e0565b905081810360c083015261320881896130e0565b905081810360e083015261321c81886130e0565b905061322c610100830187613118565b61323a6101208301866130c1565b613248610140830185613127565b81810361016083015261325b8184613146565b90509d9c50505050505050505050505050565b613277816127bc565b8114613281575f5ffd5b50565b5f813590506132928161326e565b92915050565b5f602082840312156132ad576132ac612a33565b5b5f6132ba84828501613284565b91505092915050565b5f6020820190506132d65f830184613127565b92915050565b6132e5816127dc565b81146132ef575f5ffd5b50565b5f81359050613300816132dc565b92915050565b5f6020828403121561331b5761331a612a33565b5b5f613328848285016132f2565b91505092915050565b5f5f5f6060848603121561334857613347612a33565b5b5f61335586828701612ddb565b935050602084013567ffffffffffffffff81111561337657613375612a37565b5b61338286828701612b3a565b925050604084013567ffffffffffffffff8111156133a3576133a2612a37565b5b6133af86828701612b3a565b9150509250925092565b5f61018083015f8301516133cf5f86018261271e565b50602083015184820360208601526133e78282612765565b915050604083015184820360408601526134018282612765565b9150506060830151848203606086015261341b8282612765565b915050608083015184820360808601526134358282612765565b91505060a083015184820360a086015261344f8282612765565b91505060c083015184820360c08601526134698282612765565b91505060e083015184820360e08601526134838282612765565b91505061010083015161349a6101008601826127cd565b506101208301516134af61012086018261271e565b506101408301516134c46101408601826127e5565b506101608301518482036101608601526134de828261280e565b9150508091505092915050565b5f6020820190508181035f83015261350381846133b9565b905092915050565b5f60208201905061351e5f8301846130c1565b92915050565b7f4e487b71000000000000000000000000000000000000000000000000000000005f52602260045260245ffd5b5f600282049050600182168061356857607f821691505b60208210810361357b5761357a613524565b5b50919050565b7f4e487b71000000000000000000000000000000000000000000000000000000005f52601160045260245ffd5b5f6135b882612715565b91506135c383612715565b92508282039050818111156135db576135da613581565b5b92915050565b7f4e487b71000000000000000000000000000000000000000000000000000000005f52603260045260245ffd5b5f61361882612715565b91507fffffffffffffffffffffffffffffffffffffffffffffffffffffffffffffffff820361364a57613649613581565b5b600182019050919050565b5f81905092915050565b5f6136698261272d565b6136738185613655565b9350613683818560208601612747565b80840191505092915050565b5f61369a828461365f565b915081905092915050565b7f4163636573732064656e6965643a20696e76616c69642070617373776f7264005f82015250565b5f6136d9601f836130d0565b91506136e4826136a5565b602082019050919050565b5f6020820190508181035f830152613706816136cd565b9050919050565b5f613718828961365f565b9150613724828861365f565b9150613730828761365f565b915061373c828661365f565b9150613748828561365f565b9150613754828461365f565b9150819050979650505050505050565b7f4e6f206861736820636f6d6d69747465640000000000000000000000000000005f82015250565b5f6137986011836130d0565b91506137a382613764565b602082019050919050565b5f6020820190508181035f8301526137c58161378c565b9050919050565b7f48617368206d69736d61746368202d20696e76616c69642072657665616c00005f82015250565b5f613800601e836130d0565b915061380b826137cc565b602082019050919050565b5f6020820190508181035f83015261382d816137f4565b9050919050565b7f496e76616c6964207369676e61747572653a206e6f74207369676e65642062795f8201527f206f776e65720000000000000000000000000000000000000000000000000000602082015250565b5f61388e6026836130d0565b915061389982613834565b604082019050919050565b5f6020820190508181035f8301526138bb81613882565b9050919050565b5f819050815f5260205f209050919050565b5f6020601f8301049050919050565b5f82821b905092915050565b5f6008830261391e7fffffffffffffffffffffffffffffffffffffffffffffffffffffffffffffffff826138e3565b61392886836138e3565b95508019841693508086168417925050509392505050565b5f819050919050565b5f61396361395e61395984612715565b613940565b612715565b9050919050565b5f819050919050565b61397c83613949565b6139906139888261396a565b8484546138ef565b825550505050565b5f5f905090565b6139a7613998565b6139b2818484613973565b505050565b5b818110156139d5576139ca5f8261399f565b6001810190506139b8565b5050565b601f821115613a1a576139eb816138c2565b6139f4846138d4565b81016020851015613a03578190505b613a17613a0f856138d4565b8301826139b7565b50505b505050565b5f82821c905092915050565b5f613a3a5f1984600802613a1f565b1980831691505092915050565b5f613a528383613a2b565b9150826002028217905092915050565b613a6b8261272d565b67ffffffffffffffff811115613a8457613a83612a43565b5b613a8e8254613551565b613a998282856139d9565b5f60209050601f831160018114613aca575f8415613ab8578287015190505b613ac28582613a47565b865550613b29565b601f198416613ad8866138c2565b5f5b82811015613aff57848901518255600182019150602085019450602081019050613ada565b86831015613b1c5784890151613b18601f891682613a2b565b8355505b6001600288020188555050505b505050505050565b5f819050815f5260205f209050919050565b601f821115613b8457613b5581613b31565b613b5e846138d4565b81016020851015613b6d578190505b613b81613b79856138d4565b8301826139b7565b50505b505050565b613b92826127f4565b67ffffffffffffffff811115613bab57613baa612a43565b5b613bb58254613551565b613bc0828285613b43565b5f60209050601f831160018114613bf1575f8415613bdf578287015190505b613be98582613a47565b865550613c50565b601f198416613bff86613b31565b5f5b82811015613c2657848901518255600182019150602085019450602081019050613c01565b86831015613c435784890151613c3f601f891682613a2b565b8355505b6001600288020188555050505b505050505050565b5f6060820190508181035f830152613c7081866130e0565b9050613c7f6020830185613127565b613c8c60408301846130c1565b949350505050565b7f496e76616c69642070726f6475637420494400000000000000000000000000005f82015250565b5f613cc86012836130d0565b9150613cd382613c94565b602082019050919050565b5f6020820190508181035f830152613cf581613cbc565b9050919050565b5f604082019050613d0f5f830185613127565b613d1c60208301846130c1565b9392505050565b7f4e6f7420617574686f72697a65640000000000000000000000000000000000005f82015250565b5f613d57600e836130d0565b9150613d6282613d23565b602082019050919050565b5f6020820190508181035f830152613d8481613d4b565b9050919050565b5f6060820190508181035f830152613da381866130e0565b90508181036020830152613db781856130e0565b9050613dc660408301846130c1565b949350505050565b7f4e487b71000000000000000000000000000000000000000000000000000000005f52602160045260245ffd5b5f60ff82169050919050565b613e1081613dfb565b82525050565b5f608082019050613e295f830187613127565b613e366020830186613e07565b613e436040830185613127565b613e506060830184613127565b9594505050505056fea2646970667358221220ba6bc17025baba7327d644a3664c8b6e336cd78f0529422c4d604be11de5612364736f6c634300081c0033",
  "linkReferences": {},
  "deployedLinkReferences": {},
  "immutableReferences": {},
  "inputSourceName": "project/contracts/FoodTrace.sol",
  "buildInfoId": "solc-0_8_28-2ea1aae39361e1336b57e0e93a55232234c497b3"
}